:1000000000000420B5020000DD020000DF02000055
:10001000E1020000E3020000E50200000000000031
:10002000000000000000000000000000E7020000E7
:10003000E902000000000000EB020000ED020000F9
:10004000A11C00008D36000005340000EF02000006
:10005000EF020000EF020000EF020000EF020000DC
:100060002D600000EF020000EF020000EF02000030
:10007000EF020000EF020000EF020000EF020000BC
:10008000EF020000EF020000EF020000EF020000AC
:10009000EF020000EF020000EF020000EF0200009C
:1000A000EF020000EF020000EF020000EF0200008C
:1000B000EF020000EF02000000000000000000005E
:1000C000EF020000EF020000EF020000EF0200006C
:1000D000EF020000EF020000EF020000EF0200005C
:1000E000EF020000EF020000EF020000000000003D
:1000F00000000000EF02000000000000EF0200001E
:1001000000000000000000000000000000000000EF
:1001100000000000000000000000000000000000DF
:1001200000000000000000000000000000000000CF
:1001300000000000000000000000000000000000BF
:1001400000000000000000000000000000000000AF
:10015000000000000000000000000000000000009F
:10016000000000000000000000000000000000008F
:10017000000000000000000000000000000000007F
:10018000000000000000000000000000000000006F
:10019000000000000000000000000000000000005F
:1001A000000000000000000000000000000000004F
:1001B000000000000000000000000000000000003F
:1001C000000000000000000000000000000000002F
:1001D000000000000000000000000000000000001F
:1001E000000000000000000000000000000000000F
:1001F00000000000000000000000000000000000FF
:1002000010B5054C237833B9044B13B10448AFF350
:1002100000800123237010BDF802002000000000C0
:100220005004010008B5034B1BB103490348AFF369
:10023000008008BD00000000FC0200205004010006
:10024000154B002B08BF134B9D46A3F5803A0021A8
:100250008B460F461348144A121A0DF011FC0F4B2F
:10026000002B00D098470E4B002B00D09847002061
:10027000002104000D000D48002802D00C48AFF307
:1002800000800DF09FFB2000290002F017F90DF00F
:1002900085FB00BF000008000000042000000000F3
:1002A00000000000F8020020683A00200000000072
:1002B000000000000649074A074B9B1A03DD043B78
:1002C000C858D050FBDC02F0BFFAFFF7B9FF0000BE
:1002D0009804010000000020F8020020FEE7FEE77D
:1002E000FEE7FEE7FEE7FEE7FEE7FEE7FEE7FEE7E6
:1002F000704700BF00B583B0044B0093044A40230D
:1003000000F036F803B05DF804FB00BF15030000F1
:100310001803002002B32DE9F843114B114E884613
:10032000144643F0010903270025224608EB050186
:10033000002002F0A5F903461D444FF47A40E41A68
:1003400023B9337833B1C847013F06D00123337056
:10035000002CEAD1BDE8F88370473770BDE8F88318
:10036000C0E7000014030020704700BF02F03CBA51
:10037000F0B595B0002415460F4608461E4601F01C
:1003800085FA384623460895082205A91A9D09963C
:100390000D950A948DF82C400C9401F0D1FA9DF83B
:1003A00014308DF81140DDE9061003F00302012A34
:1003B000CDE9020127D0022A04D0384601F06AFABA
:1003C00015B0F0BDBDF81650C3F3C2038DF8103060
:1003D000AD090826082D2C4628BF0824334622469E
:1003E0000EA9384601F0ACFA2D1B214608AB02AA33
:1003F0000EA8264400F0CCFC002DEBD1384601F0CD
:1004000049FA15B0F0BDBDF81460059DC6F383161A
:10041000C3F3C204B2000EA9384608238DF8104079
:10042000C5F3952501F08CFA08AB324628460EA993
:10043000009302AB00F006FC384601F02BFA15B031
:10044000F0BD00BF08B5FFF791FF0421034800F09D
:10045000AFFB034B01225A7108BD00BF6C040100C1
:1004600000000020F0B5324C85B004F5836000F048
:10047000D1FD04F2144000F0CDFDD4E9013703EAC8
:100480000702D01C04EB800114F8200010F00400D7
:1004900044D003F1020C0E7806F00306012E6546E7
:1004A00035D0022E02F1030621D004EB860100288C
:1004B000F1D104EB82020133D26801923B4004EB9C
:1004C000830302F00302012ADE6829D0022A23D125
:1004D000BDF806309B090333360C05EB9305154830
:1004E00000F0A4FD00B16560304605B0F0BD4B885A
:1004F0000CEB931307EA0302D11C03F1020C14F86E
:100500002100654604EB810100F00400CFE70B8871
:10051000C3F383136344EDE70026E0E79D1CC8E7BF
:10052000BDF80430C3F38313360C1D44D7E700BF76
:10053000280400203C0800200B4B0C4810B500227A
:10054000FF2401219C60C3F8182483F82014C3E918
:100550000022C3F8142401F055F9044610B90448E8
:1005600001F022FA204610BD280400207C0401007E
:10057000E4E7000021B9124B03EBC00000687047AC
:10058000104A0F49521AD20815D030B40E4D2B889C
:10059000834212D0002303E035F82340844205D083
:1005A00001339A42F8D1002030BC704701EBC30000
:1005B000006830BC7047104670470846F8E700BF37
:1005C000540401006C040100F4020020094B0139BD
:1005D00003EBC00003290BD8DFE801F00208060492
:1005E00002207047407970470079704704207047B7
:1005F000002070475404010030B5164B93F82034A6
:1006000083B0044603BB08B30DF0A2FA02AA01307E
:1006100042F8080D012301A90F4801F0D3F905465E
:10062000A0B92146DDE900200DF01FFADDE9002325
:100630001344094803F8015C009901F00BFA009992
:10064000054801F021FA019803B030BD002003B045
:1006500030BD00BF28040020E4E700002DE9F84386
:10066000DFF8D890074600208846D9F8084000F007
:1006700083FCD9E90132D9F80060134401339B1B94
:10068000012B56D809F21C450121284600F09EFC9A
:10069000FFF7E8FE0146284600F098FCD9E9013250
:1006A000D9F80010134401335B1A012BECD90A402E
:1006B000033205230231002049F82230C9F8001026
:1006C00000F062FC00211C4800F076FC80F3100072
:1006D000731C234009EB830300043440033440EAD5
:1006E0001740D86019F8243067F3C50309F824309F
:1006F00039F824306FF3891329F8243059F824206D
:1007000068F39F221346012161F301036FF3820313
:1007100049F8242009F8243099F820341BB906E060
:1007200000F00EF818B1D9E900329A42F8D1BDE8CC
:10073000F8833146BBE700BF4408002028040020AE
:100740002DE9F047914C002384B0C4F81834BFF36E
:100750004F8FD4E9015605EA0602D31C04EB83014E
:1007600014F82330580719D527680B7803F00303D2
:10077000012B43D0022B03D14B88023505EB931597
:1007800006EA0502D4F81804D31C04EB830128B947
:10079000AF4239D914F823305B07E6D404EB820268
:1007A0006B1CD2680192334004EB830302F0030216
:1007B000DB680293022A05F1020700F08980012A12
:1007C00026D0D4F810543DB12B6828469B68984732
:1007D000EB681D68002DF7D16D486E4B6E49C01A4D
:1007E000C008000440F00200FFF738FFD4E90030F1
:1007F000C01A18BF012004B0BDE8F0870B8802358D
:10080000C3F383131D44BBE7676004B0BDE8F08702
:10081000BDF804206148C2F38313062B28BF0623CA
:1008200063F3891202339900ADF8042000F0ECFF65
:1008300080460028C5D001F029F80023082201A92C
:10084000404601F049F8BDF8043013F4707F00F021
:100850009B806FF0010AAAEB050A082506EA07014A
:1008600003312B46042204EB8101404601F034F8A9
:10087000BDF8043007F101090AEB0902C3F3831341
:1008800093424F4605F10405E8D8D4F81834002BFC
:1008900064D1D4F8105465B1EB685A7928464146C2
:1008A000002A57D02B681B689847EB681D68002DFD
:1008B000F2D1404600F0EEFF002000F05DFBD4F8DE
:1008C00018340BB9C4F80490002000F05DFB8DE7EC
:1008D000BDF8063031484FEA93194D46502D28BFD8
:1008E000502565F38F1305F10801ADF8063000F0CF
:1008F0008BFF804600283FF464AF26EA070A0AF11E
:10090000010A00F0C3FF4FEA8A0A0023082201A966
:10091000404600F0E1FF55452BD9EBB2BAF1000F8C
:1009200020D006EA0701A3EB0A03033104EB81019F
:10093000DDB252460823404600F0CEFF2A460AF1B7
:1009400008031749404600F0C7FF09F1030907EB08
:1009500099099AE71D68002D9ED1AAE7404600F04C
:1009600099FF43E72A4608230D49404600F0B4FFAB
:10097000EBE706EA0701033104EB81012A4608236D
:10098000404600F0A9FFE0E7B9467EE728040020D2
:100990005C04010054040100F0E700007C04010045
:1009A000340400202DE9F047DFF8E4A007460020DA
:1009B00091468846DAF8084000F0DEFADAE90132BA
:1009C000DAF80060134401339B1B022B5CD80AF257
:1009D0001C450121284600F0F9FAFFF743FD0146C6
:1009E000284600F0F3FADAE90132DAF8001013448D
:1009F00001335B1A022BECD90A4003320331452341
:100A000000204AF82230CAF8001000F0BDFAB31CEA
:100A100023400AEB830300211C48C3F80C9000F02C
:100A2000CBFA80F31000731C23400AEB830300040D
:100A30003440033440EA1740D8601AF8243067F392
:100A4000C5030AF824303AF82430012161F38913F0
:100A50002AF824305AF8242068F39F22134661F3C1
:100A600001036FF382034AF824200AF824309AF82D
:100A700020341BB906E0FFF763FE18B1DAE9003253
:100A80009A42F8D1BDE8F0873146B5E74408002026
:100A9000280400202DE9F84F3D4C80460020934665
:100AA0009A46A568894600F067FAD4E901322768BA
:100AB00013440133DB1B042B67D804F21C460121CD
:100AC000304600F083FAFFF7CDFC0146304600F0D7
:100AD0007DFAD4E901322168134401335B1A042BF7
:100AE000EDD90A4003320531C523002044F82230F5
:100AF000216000F049FAB81CFA1C28402A403B1D2E
:100B00002B4004EB800004EB820204EB8303C0F86B
:100B10000CB00021C2F80CA01E480A9ADA6000F05E
:100B20004BFA80F310007B1C2B4004EB8303000482
:100B30003D40033540EA1840D86014F8253068F38A
:100B4000C50304F8253034F82530032262F38913F5
:100B500024F8253054F8252069F39F2213460121FB
:100B600061F301036FF3820344F8252004F8253074
:100B700094F820341BB906E0FFF7E2FD18B1D4E980
:100B800000329A42F8D1BDE8F88F3946A9E700BF94
:100B90002804002044080020044BD3E900239A4293
:100BA00001D0FFF7CDBD0020704700BF2804002012
:100BB00030B4184DD5F8104400215CB1E3681A79BF
:100BC0008A4204D116E0DB681A798A4212D01B6887
:100BD000002BF8D1C3681971D5F8103493B1DA68D5
:100BE000C36812681A60D5F81034DB68186030BC2E
:100BF0000846704701310A29DFD14FF0FF3108461E
:100C000030BC7047C5F81004C2681360084630BC99
:100C1000704700BF2804002038B5094BD3F81044B2
:100C2000012583F820544CB1E3685D7123682046A8
:100C30005B689847E3681C68002CF5D138BD00BF9D
:100C4000280400202DE9F04784B01D460C9C0023A9
:100C500094F80C802373EB8881460E461746002BD0
:100C600040D1297A05290ED06B7AA88873BB404BF6
:100C700053F821A00021FFF77DFC524603463D4971
:100C8000204600F04BFA062F09D8DFE807F0046A87
:100C90004249525D33004946204600F03FFA2B7A24
:100CA000052B05D06B7A5BB93349204600F036FA44
:100CB000204600F027FA84F80C8004B0BDE8F087E5
:100CC0002E4A2F49204600F029FAEDE7FFF77EFC77
:100CD0002C4B2B4953F82020204600F01FFA297A8C
:100CE000A888C4E7254A00922749284A204600F0F0
:100CF00015FAB6E7D6E90410D6E900230390D6E941
:100D000002070291CDE900074946204600F006FAA5
:100D1000C5E74946D6E90023204600F0FFF9BEE7C3
:100D2000B168D6E9002320460091494600F0F6F963
:100D3000B5E7D6E90201D6E90023019100904946C2
:100D4000204600F0EBF9AAE7D6E90371B068D6E9CE
:100D500000230291CDE900074946204600F0DEF964
:100D60009DE732684946204600F0D8F997E700BF72
:100D700078E8000068E8000074E8000060E800001F
:100D80005CE9000008E8000048E8000040E80000D6
:100D9000082900D970472DE9F04F1D4690460023E1
:100DA0002A7B2B7385B0B8F80630039207460E46AF
:100DB000002B77D198F80810052911D098F8093040
:100DC000B8F80400002B5FD13A4B53F821400021C2
:100DD000FFF7D0FB224603463749284600F09EF92C
:100DE000DFF8F4B0DFF8F490002405E03A5D013458
:100DF00000F094F9082C09D0A64249462846F5D8B7
:100E00005946013400F08AF9082CF5D12B49DFF856
:100E1000D090DFF8D0B0284600F080F9002411E02F
:100E200017F804A00CF0F2FD50445946437813F033
:100E3000970F14BF52462E222846013400F06EF957
:100E4000082C08D0A64249462846E9D8013400F0CB
:100E500065F9082CF6D198F80830052B02D098F8DF
:100E600009305BB91649284600F058F9284600F0C9
:100E700049F9039B2B7305B0BDE8F08F114A124965
:100E8000284600F04BF9EDE7FFF7A0FB0F4B0E49AA
:100E900053F82020284600F041F998F80810B8F8D7
:100EA000040091E7074A009209490A4A284600F0DF
:100EB00035F97FE778E8000068E8000038E80000CE
:100EC00074E8000060E800005CE9000008E8000049
:100ED00048E8000040E8000034E800002CE800008A
:100EE00070E800003CE8000000B585B000230390E6
:100EF000194601AA44F20100CDE9013300F004F8DB
:100F000005B05DF804FB00BF10B572B6FFF784FEB4
:100F1000FFF742FE0028FBD1104B114C1149E41A97
:100F2000E408240444F00100FFF798FB0E4B1B6813
:100F3000DB0700D500BE44F002000C49FFF78EFB32
:100F4000BFF34F8F0A490B4BCA6802F4E0621343A8
:100F5000CB60BFF34F8F00BFFDE700BF540401001B
:100F60005C040100E4E80000F0ED00E0F0E80000BF
:100F700000ED00E00400FA0572B6024A136801337E
:100F800013607047E4080020034A1368013B1360B4
:100F900003B962B6704700BFE408002000B583B013
:100FA0006A46ADF80000019144F202000021FFF70B
:100FB000ABFF03B05DF804FB50E8002F0B4640E8A0
:100FC000003C9CF0000FF7D11046704750E8003FFE
:100FD00003EB010240E8002C9CF0000FF6D1104614
:100FE000704700BF50E8003FA3EB010240E8002C2F
:100FF0009CF0000FF6D11046704700BF012350E867
:1010000000CF4CEA030240E8002191F0000FF6D136
:1010100060467047012350E8002F42EA030C40E885
:1010200000C191F0000FF6D160467047002350E8F0
:1010300000CF0CEA030240E8002191F0000FF6D146
:1010400060467047002350E8002F02EA030C40E896
:1010500000C191F0000FF6D160467047B8B130B4CE
:10106000D0E90112521A0468D2B2531E2160DBB2D9
:1010700042B101680A685C1E551C0D601370E3B232
:10108000FF2BF6D103680020187130BC70470E208A
:10109000704700BF38B504460020FFF76DFFD4E964
:1010A00000311A688A4215D9511E19602168A36857
:1010B0000868258A12F8012CE4681B1A0879DBB24B
:1010C000984205FB024400D20B710020FFF75CFF41
:1010D000204638BD0024F8E738B5054600200C4608
:1010E000FFF74AFF2A681368591C1160E9682A8AC9
:1010F000641AB4FBF2F41C700020BDE83840FFF71E
:1011000043BF00BF826842B110B50446436901681D
:10111000006998470023A36010BD70470EB400B566
:1011200082B0039929B102AA04AB42F8043D00F051
:101130008BF802B05DF804EB03B070472DE9F84F6F
:1011400088469045174605461E46DDE90AB175D327
:1011500043464FF00109B3FBF7F39F4209F1010940
:10116000F9D9B14538BFB14611F0010AAA6802D1D8
:10117000BBF1000F43D1012402E0013E07FB04F460
:10118000012EFAD8B8FBF4F18F42F7D92D4E05E0C5
:10119000B4FBF7F4A4B1B8FBF4F1AA68705C531C7B
:1011A000AB602B689854D5E901329A4204FB118850
:1011B000EED32846FFF7A6FFB4FBF7F4002CEAD1E4
:1011C000BAF1000F15D0BBF1000F12D0CB4510D9EA
:1011D0002024AB682A68591CA960D454D5E901328F
:1011E0009A420BF1FF3B06D2BBF1000F01D0CB4579
:1011F000EFD1BDE8F88F2846FFF784FFF4E78B07AF
:1012000017D42024CB45B6D92B68511CA9609C5417
:10121000D5E901329A420BF1FF3B05D2BBF1000F39
:10122000A9D0CB45F0D1A6E72846FFF76BFFAA6807
:10123000F4E7002E0CBF30242024E3E74FF001092F
:101240008FE700BF00E90000002900F0F4812DE9DC
:10125000F04F054685B092460C460B78DFF8A0B5F6
:1012600001E0237893B1013483B1252B15D0AA680E
:101270002968501CA8608B54D5E901329A42F0D3FA
:101280002846FFF73FFF2378002BECD12B7B002B68
:1012900040F0148105B0BDE8F08F2146002711F819
:1012A000012B2D2A00F0E180302A00F0E2802B2A69
:1012B00000F0D2802A2A00F0E080A2F13006F3B2DA
:1012C000092B03D9B8E1A3F130060146084606EB25
:1012D000860310F8012BA2F13004092C02EB430322
:1012E000F1D92E2A00F0D5800023013101E011F858
:1012F000012B02F0FB0068280C46F8D0253A532A4F
:10130000AFD801A151F822F0C91400006312000007
:1013100063120000631200006312000063120000F9
:1013200063120000631200006312000063120000E9
:1013300063120000631200006312000063120000D9
:1013400063120000631200006312000063120000C9
:1013500063120000631200006312000063120000B9
:1013600063120000631200006312000063120000A9
:101370006312000063120000631200006312000099
:101380006312000063120000631200006312000089
:101390006312000063120000631200006312000079
:1013A0006312000063120000631200006312000069
:1013B0006312000063120000631200006312000059
:1013C0006312000063120000631200006312000049
:1013D00063120000E31400006312000063120000B7
:1013E0006312000063120000631200006312000029
:1013F0006312000063120000631200006312000019
:10140000FD1400001F1500006312000063120000AD
:1014100063120000631200001F1500006312000039
:1014200063120000631200006312000063120000E8
:10143000631200006F1500006312000063120000C9
:10144000E3150000631200001D1600006312000087
:1014500063120000E314000047F004070C46214625
:1014600011F8012B2D2A7FF41FAF47F001070C461E
:10147000F5E747F002070C46F1E7DAF800301A1DED
:10148000CAF8002062781E682E2A04F102007FF458
:101490002BAF4A78A2F13003092B00F250810023D0
:1014A00003EB830302EB430310F8012FA2F1300199
:1014B0000929A3F13003F3D9014616E7284605B000
:1014C000BDE8F04FFFF71EBEAB682A68591CA96043
:1014D0004FF02501D154D5E901329A42FFF4C1AE53
:1014E000CEE6DAF80020111DCAF80010116828466F
:1014F000CDE900671022FFF721FEB2E6DAF80020FE
:10150000131DCAF80030AB6829681278581CA8600F
:10151000CA54D5E901329A42FFF4A3AEB0E6DAF834
:101520000020111DCAF80010D2F8008088EAE87285
:10153000A2EBE872092A4FF0010107DDAF48A0FBDA
:101540000202D208092A01F10101F7DC994238BFF1
:101550001946894607F00202002E71D12AB1002BEC
:1015600000F04781FA0700F18D8000268AE0DAF862
:101570000020131DCAF80030AB6829681768581C92
:101580003022A860CA54D5E90123934280F0288113
:101590002A68581C7821A860D154D5E901239342C8
:1015A00080F019810F2F03D93A4612090F2AFCD86F
:1015B0004FF0805603E036093FF453AEAB6829681C
:1015C000B7FBF6F2581CA8601BF80200C854D5E916
:1015D0000131994206FB1277EDD32846FFF792FDC1
:1015E000E9E7DAF800301A1DCAF80020D3F80080C5
:1015F000FB077ED54746A7EB080917F8013B002BF0
:101600005DD0AA682968501CA8608B54D5E90132C6
:101610009A42F0D32846FFF775FDECE7DAF8002090
:10162000111DCAF8001011682846CDE900670A228A
:10163000FFF784FD15E6704708460026214650E670
:10164000B8F1000F01DB780700D5013E02B1CBB144
:10165000F90717D4002E88D0B14513D22022039366
:10166000A9682B68481CA8605A54D5E901319942F1
:1016700006F1FF365DD2002E00F0BD80B145EFD1FE
:10168000039B4E46B8F1000FC0F292807A070AD54C
:10169000A9684A1CAA602A682B205054D5E9012168
:1016A000914280F0928007F00302022A5FD0CDE9D8
:1016B000006741460A222846FFF740FDD1E54E4526
:1016C0007FF6CFAD202705E04E453FF4CAAD002E92
:1016D0003FF4C7ADAB682A68591CA960D754D5E957
:1016E00001329A4206F1FF36EED32846FFF70AFD93
:1016F000EAE7B8F1000F24D040460CF029FA07467B
:10170000BE4220D9FEB14FF0200902E0BE421AD0FD
:10171000CEB1AB682A68591CA96002F80390D5E9DC
:1017200001329A4206F1FF36F0D32846FFF7EAFC71
:10173000ECE728460292FFF7E5FC029A9BE7014698
:10174000D2E54746DCE708F1FF3818F8013F002BE7
:101750003FF487ADAA682968501CA8608B54D5E96E
:1017600001329A42F1D32846FFF7CCFCEDE7002B7B
:101770009DD1002E3BD0B14599D2029323464C46D1
:101780009946AA682B68501C4FF03001A860995404
:10179000D5E901329A4206F1FF3605D22EB3B442A2
:1017A000EFD1029B4C4682E72846FFF7ABFCF5E7FA
:1017B000A9684A1CAA602A682D205054D5E9012145
:1017C0009142C8F10008FFF46EAF28460293FFF77C
:1017D00099FC029B67E72846FFF794FCAB68E1E6BB
:1017E0002846FFF78FFCAB68D2E6029B4C460026EA
:1017F0005DE71E4646E7039BB7E600BFCDCCCCCCE9
:1018000000E90000FFF72ABC2DE9F041058ACE1C53
:10181000043D2E440746B6FBF5F6FFF73BFC78B3D4
:10182000F6B24FF48073013E0446C58007608380A2
:1018300027D08046002509E06379AE4203F1010319
:101840006371C8F80000076080461AD03846FFF779
:1018500021FC01350028EFD16679721E14D0234691
:10186000013082421B68FBD11F684EB100252368FE
:101870002146013538461C46FFF72EFCAE42F6D114
:1018800000242046BDE8F0812768EFE704300121FD
:10189000FFF79CBBF8B5012104460430FFF7A2FB1B
:1018A000C0B200B1F8BD6679721E12D02346013075
:1018B00082421B68FBD11F68002EF3D000252368ED
:1018C0002146013538461C46FFF706FCAE42F6D1EC
:1018D000F8BD2768F2E700BF2DE9F843C7884679CD
:1018E00007FB06F6043E02EB030C0446664503F1D3
:1018F000040015468846B0FBF7F238BFF51A07FB1F
:10190000120012B1013A2468FCD13E1AAE4228BF3F
:101910002E469DB14FF000090430AD1B20443246E5
:1019200008EB09010CF0A1F8AF42B14424683E462F
:101930004FF0000028BF2E46002DEDD1BDE8F88302
:101940002DE9F843C7884679154607FB06F6043E9D
:1019500005EB030C1A1D664504468846B2FBF7F0FA
:1019600038BFF51A07FB102110B101382468FCD1EB
:101970007E1AAE4228BF2E469DB14FF000090431B9
:101980002144AD1B324608EB09000CF06EF8AF4263
:10199000B14424683E464FF0000128BF2E46002D7A
:1019A000EDD1BDE8F88300BF8268002393608268B0
:1019B0001361826853618268D36082685360826871
:1019C000136070472DE9F04105460F469046806848
:1019D0004BBBD0E903206E68141A711C8C421DD0D9
:1019E00000EA060302EA06049C423CBF8319013365
:1019F000D8F800002CBF0B1B9B1A834228BF03465C
:101A0000C8F800302B6823443B60AA68D8F800105F
:101A1000D3680B44D3600020BDE8F081C8F80030E3
:101A20001846BDE8F081FFF7E9FA044678B9D5E930
:101A30000163D3E90320711C131A8B42D0D1C8F87B
:101A40000040A868FFF7FEFA2046BDE8F0811120AB
:101A5000BDE8F08138B5D0E901342569A2680133C9
:101A60002B449B1A8B420CD30A44A26083689A6869
:101A7000DA608068FFF7DAFA00280CBF082000203F
:101A800038BD042038BD00BF10B584682269A36842
:101A90009B1A8B420AD30A44226183681A695A61ED
:101AA00080680430FFF7CEFA002010BD042010BD7E
:101AB00010B570B101280BD10D4C2369A0703BB15A
:101AC000D3E900230120226198472369002BF7D135
:101AD00010BD074CA36801226270002BF8D0D3E937
:101AE00000230020A2609847A368002BF7D1EFE7FE
:101AF000E808002038B50A4C23786BB909486360C0
:101B0000A3602361E36000F07FF8054600F08AF8E7
:101B100001232370284638BD8525284638BD00BFDF
:101B2000E8080020B11A000038B5154CA378054626
:101B300073B110B14368012098470020FFF71CFAE9
:101B4000E3680133E3600020BDE83840FFF71CBACA
:101B500003F0FF00FFF710FA65B1226942B1954228
:101B600008D0134601E09D4204D01B68002BFAD137
:101B70002A602561E368002BE2D100F067F8DFE717
:101B8000E80800204FF08043D3F81804C0F3004069
:101B9000704700BF38B5154C6378054673B110B176
:101BA0004368002098470020FFF7E6F96368013397
:101BB00063600020BDE83840FFF7E6B903F0FF009E
:101BC000FFF7DAF965B1A26842B1954208D0134631
:101BD00001E09D4204D01B68002BFAD12A60A56069
:101BE0006368002BE2D100F049F8DFE7E808002045
:101BF0004FF08043D3F80C0400F00110A0F1011065
:101C0000B0FA80F040097047054A13792BB90121D9
:101C1000106053711846117170478520704700BFDE
:101C2000FC080020084B1A68D20706D40122C02104
:101C300083F80013C3F880211A604FF0804301221B
:101C4000C3F81825704700BF00E100E010B4094B4D
:101C5000094A0021196083B01B680193019C4FF071
:101C6000804102200123C1F80403136003B05DF832
:101C7000044B70470401004008000040074B00225D
:101C80001A6082B01B68019301994FF080430122D2
:101C9000C3F804231A6002B0704700BF000100407F
:101CA00010B5154B1A6882B07AB10021134A196039
:101CB0001B68507900934FF080410123009CC1F8CC
:101CC000083310B91168537188470D4B1A6882B1F7
:101CD00000221A601B6801934FF080420221074BDB
:101CE0000198C2F808131B68012002B0BDE810403B
:101CF000184702B010BD00BF00010040FC080020E2
:101D00000401004008B42DE9F041C7B00024DDF81B
:101D10003481069407460E4615462146FC2207A844
:101D20000BF0AEFE0394B8F1000F3ED04EA8034670
:101D3000039042464FF4807106A80BF03DFFFF2848
:101D400002D90320FFF7D0F81A4B1B4C06A8E41A5F
:101D5000FEF752FCE40824040246184944F003004C
:101D6000FEF720FEEFB1E5B13846FEF745FC074629
:101D70002846FEF741FC3A460090334644F0010005
:101D80000F49FEF787FE04AA002144F20200ADF8D5
:101D900010600595FFF7B8F847B0BDE8F04101B015
:101DA00070470E20FFF7A0F8DEE70E20FFF79CF843
:101DB000BCE700BF540401005C0401004CE90000D2
:101DC00020E90000024B53F820300846184700BFB6
:101DD000B8E90000024B53F820300846184700BF0E
:101DE000F0E90000024B5878B0FA80F040097047E3
:101DF00004090020034A044B10681B68C01A18BF6E
:101E000001207047580C00205C0C0020014B187812
:101E1000704700BF08000020014B1878704700BFD2
:101E2000090000204FF0A0434FF400510022C3F8F6
:101E30000C15C3F808257047014B01221A70704732
:101E40000900002028B10268024B1188927819809D
:101E50009A707047F80C002070B403680F4D93F827
:101E600020200F4C243385B093E803008DF80C201C
:101E700001AA82E803002B6807CA03EB430601337B
:101E8000412B2B6004EB860408BF002384E8070085
:101E900008BF2B6005B070BC704700BF5C0C002011
:101EA0004C0900200268034B92E8030083E803001A
:101EB000704700BF0409002010B5114A114813688B
:101EC000591C412908BF0021116003EB43030E4A4E
:101ED0009B00D418D158227A0131013A01F010F850
:101EE000204601F0B4FF4FF0A043084800224FF411
:101EF00000410270C3F80C15C3F8082510BD00BFDF
:101F0000580C0020240000204C090020090000206B
:101F100008B50A4B0A4993F828201846013283F87D
:101F2000282001F04FFE4FF0A0434FF480410022E3
:101F3000C3F80C15C3F8082508BD00BF1009002020
:101F40001922000070B5254D254800242C7000F0A2
:101F5000C5FF4FF0A0434FF480416428C3F8081533
:101F6000C3F80C4537D8024610B901232B7070BD59
:101F7000451CEDB21B4E1A48711C00F075FF012282
:101F8000194930460BF071FD184B194993F8292077
:101F900093F8284083F8205042F0010202F0FD023D
:101FA0006FF38202C3F8161018460225114983F810
:101FB000292001345E6283F828405D751D7501F0AB
:101FC00001FE4FF0A0434FF480410022C3F80C15EE
:101FD000C3F8082570BD65256422CBE70800002002
:101FE00024000020780C0020000D002010090020A3
:101FF00034120B001922000070B5182082B002F0D4
:10200000CBFE0D4C522520600021284602F0D6F868
:10201000266802F0C1FE2368706102A9012201F85E
:10202000012DDD7358690BF020FD2068034902F093
:1020300007F802B070BD00BFFC0C0020B921000001
:1020400070B5182082B002F0A7FE0F4C502520601A
:102050000021284602F0B2F8266802F09DFE02A98F
:1020600041F2342321F8023D236870610222DD73BE
:1020700058690BF0FAFC206804490023037401F04E
:10208000DFFF02B070BD00BFFC0C0020B9210000D2
:1020900070B5182082B002F07FFE114C60252060E0
:1020A0000021284602F08AF8266802F075FE0AA38D
:1020B000D3E9002302A961E90223236870610822A1
:1020C000DD7358690BF0D1FC2068064900230374C6
:1020D00001F0B6FF02B070BDF9CDAB8967452301B1
:1020E000FC0C0020B921000070B5182082B002F06D
:1020F00053FE0E4C532520600021284602F05EF866
:10210000266802F049FE02A90A2321F8023D23684D
:1021100070610222DD7358690BF0A7FC2068044946
:102120000023037401F08CFF02B070BDFC0C002092
:10213000B921000070B5182082B002F02DFE0E4CBF
:10214000002529462060284602F038F8266802F06B
:1021500023FE02A90F2301F8013D2368706158692D
:10216000DD731D7401220BF080FC2068034901F02F
:1021700067FF02B070BD00BFFC0C0020B921000059
:10218000094B1A780AB90120704700B583B05B7813
:102190000093064A064B074840F20911FFF7B2FDCB
:1021A000002003B05DF804FBF80C00209CE900005F
:1021B0007CE90000B4E9000070B582B002AA1349BE
:1021C00042F8080D0B78124D02AC43F002031046A2
:1021D00000260B70FFF736FE44F8046D204600F031
:1021E0009BFC0C4A1368314643F008030720136038
:1021F00002F072FC204600F094FC2B68586902F053
:102200007BFE286802F078FE02B070BD4009002015
:10221000FC0C0020603A002030B583B04378009079
:102220001BB9144A137801331370134A137802ACA4
:1022300043F00803002568461370FFF733FE44F8A7
:10224000045D204600F068FC0C4A1368294643F000
:1022500008030720136002F03FFC204600F061FCF9
:102260004FF0A0434FF48042C3F80825C3F80C5543
:1022700003B030BD000D002040090020603A00206E
:1022800008B50549054802F0BBFC0549054A00238D
:102290000B60136008BD00BFE0E9000044090020A6
:1022A000580C00205C0C002030B5114A114C1578F8
:1022B00054F82040012383402B4383B013700CB1AA
:1022C0000846A04702AC002544F8045D204600F013
:1022D00023FC094A1368294643F0080307201360CA
:1022E00002F0FAFB204600F01CFC03B030BD00BF3A
:1022F0004009002060E90000603A002030B5364C0B
:102300002378D80783B05DD4990751D45A0745D4B0
:102310001D0739D4D8062DD4990621D45A0615D4D0
:1023200093B102AC002544F8045D204600F0F4FBB4
:102330002A4A1368072043F008032946136002F075
:10234000CBFB204600F0EDFB03B030BD83F0400333
:10235000002206212248237002F096FC2378DFE752
:1023600083F02003002205211D48237002F08CFC1D
:102370002378D3E783F01003002204211848237048
:1023800002F082FC2378C7E783F0080300220321D0
:102390001348237002F078FC2378BBE783F0040332
:1023A000002202210E48237002F06EFC2378AFE772
:1023B00083F00203002201210948237002F064FC2B
:1023C0002378A3E7002283F0010311460448237019
:1023D00002F05AFC237897E740090020603A002079
:1023E000440900204FF0A0434FF480310022C3F88D
:1023F0000C15C3F8082570474FF0A0434FF4803107
:102400000022C3F80815C3F80C257047F0B503691E
:10241000234A416A234D0E78297823F47F4393425F
:1024200085B0044605D004F1240001F010FD05B08C
:10243000F0BD038B0A2BF6D1828841F234239A42F5
:10244000F1D18378022BEED103890B2BEBD1B14272
:102450001DD094F82030002BE5D0134F3B785BB9AA
:102460000131C9B2B14207D0711A00910F4B104A25
:1024700010486021FFF746FC04A9002341F8044DF1
:1024800002202E703B70FFF70FFF05B0F0BD064F26
:102490003B78002BC7D094F82030002BECD1C2E75A
:1024A00002003412010D00200A00002080EA000022
:1024B0009CEA0000B4EA0000FFF720BF30B53B4DB6
:1024C0000FCDADF5797D02AC0FC42B68237002A946
:1024D000112207A800F09AFA01F00AFA0021084632
:1024E000FEF72AF800285ED1FDF7ACFF304B3148EB
:1024F0003149C01AC008000440F00300FEF7AEF8EE
:102500004FF0A04500230121032404E012F4F03F22
:1025100018BF45F820400133202B01FA03F203F5E0
:10252000E070F3D14FF0A0434FF4F0320024C3F831
:1025300008254FF40051C3F80C45204802F0D0FBA9
:102540001F4802F0B1FA1F4802F0AEFA00F084F81A
:10255000FFF796FE21462046FFF7A6FE01A801944C
:1025600000F0DAFA184A1368214643F008030720FE
:10257000136002F0B1FA01A800F0D3FAFFF7BAFA3B
:102580002046FFF707FBFFF733FB0028FBD00020B6
:10259000FFF7CAFAFFF7F6FA0028FBD003F014F9A8
:1025A00003F012F9FAE7FEF79FFC9DE76CEA0000E2
:1025B000540401005C0401004CEA0000040D0020FA
:1025C000180000200C000020603A002000B583B005
:1025D00090F820300093044A044B05488A21FFF705
:1025E00091FB03B05DF804FBE8EA0000D4EA0000C8
:1025F000B4E9000000210420FFF756BE08B5002111
:102600000520FFF751FE4FF0A0434FF40041002298
:10261000C3F80815C3F80C2508BD00BF4FF0A04350
:102620004FF480300022C3F80C05C3F8082501B927
:10263000704700B583B0054B0091054A05486921F4
:10264000FFF760FB03B05DF804FB00BF04EB000084
:1026500020EB000038EB0000F0B4074E074F354682
:102660000FCD3C460FC495E8070084E807003946C3
:102670003046F0BC00F07ABB5C0000202400002053
:102680002DE9F84F4400DFF85CB126180BEBC606C5
:102690008146F76A012F8A46904667D03DD3022FC4
:1026A00030D100F1010909EB4909756A4FEAC909FE
:1026B0000027B36A346AAB4203F1FF329CBF1B1997
:1026C00003F1FF33A4EB05048CBF531B5B1B0BEB27
:1026D0000902444528BF44469C42506828BF1C4616
:1026E0002844514622460BF0C0F9336A25449D42E6
:1026F0002744A8EB0408A24408D07562B8F1000F83
:10270000D7D100E000273846BDE8F88F00231D46EA
:102710007362B8F1000FCCD1F5E7B36A756AAB42CA
:102720009CBF326A9B18013B5B1B9845EBD8044465
:1027300000F101090BEBC40409EB49090BEBC90BD0
:10274000266ADBF80400761BB045284443D33246A2
:10275000A8EB06050BF089F90AEB0601DBF804008B
:102760002A460BF082F947466562CCE7D6E9082590
:10277000B76AAF4298BFBF18461C013F06EB46063A
:102780007F1B0BEBC606474528BF47467068A2EB88
:1027900005084745284412D3A1444246A7EB080543
:1027A0000BEBC90B0BF061F90AEB080170682A46C4
:1027B0000BF05BF9CBF824503846BDE8F88FA14404
:1027C0000BEBC90B3A463D440BF04FF9CBF82450C4
:1027D0003846BDE8F88F424645440BF046F9474677
:1027E000656290E71832002038B5114C114B124841
:1027F000E36110254FF40073104A11492362E0642D
:1028000000232565E01D0225A3626362E362A365E0
:102810006365E365A261A264C4E904550BF090F915
:10282000204608490BF08CF92023A37138BD00BF66
:1028300018320020942E0020842E002064EB00002B
:1028400070EB000074EB000010B44FF080414FF0CB
:1028500080520020C1F80C015E4BC1F81001C1F894
:102860003805D2F80414C3F82015D2F80814C3F8B8
:102870002415D2F80C14C3F82815D2F81014C3F894
:102880002C15D2F81414C3F83015D2F81814C3F864
:102890003415D2F81C14C3F84015D2F82014C3F82C
:1028A0004415D2F82414C3F84815D2F82814C3F8F4
:1028B0004C15D2F82C14C3F85015D2F83014C3F8C4
:1028C0005415D2F83414C3F86015D2F83814C3F88C
:1028D0006415D2F83C04C3F86805D2F840043E49B8
:1028E000C3F86C050968D2F84424C3F87025082998
:1028F00024D04FF08043D3F80024D20744BF6FF0B8
:102900000102C3F80024354AD2F8883043F470033A
:10291000C2F88830BFF34F8FBFF36F8F4FF0102393
:10292000D3F80022002A23DBD3F80432002B1FDB6C
:102930002B4B2C4A1A605DF8044B70472A4B1B68DE
:10294000002BD6D129482A4A2A4C04602A492B4B0D
:10295000FB20C2F818050A681B68294822F00F02FC
:1029600003F00F0313434FF400720B600260C0E7E3
:10297000244B0122C3F80425D3F80024002AFBD0FD
:102980004FF0102312221F49C3F80022D1F800345F
:10299000002BFBD04FF0102212211A4BC2F8041268
:1029A000D3F80024002AFBD000221649C3F80425DE
:1029B000D1F80034002BFBD0BFF34F8F0749124BE7
:1029C000CA6802F4E0621343CB60BFF34F8F00BFCD
:1029D000FDE700BF00C000403001001000ED00E046
:1029E000780000200090D003340100108C56004085
:1029F00000F0004048810300E40E0040580200103F
:102A00004096024000E001400400FA052DE9F04F35
:102A10000026C0F8C0630B782F2B97B079D1012A1C
:102A200060D902F1FF390F46804609EB010B0C46D5
:102A3000C1F1010A04E0E31B99452DD0A34551D013
:102A40000AEB040514F8013F2F2BF4D1711CAB1BCA
:102A500039449E1E8A5D02B15E1E482E06D80823A8
:102A6000324603A802930BF000F81596D8F8C0037D
:102A7000431C0C2B48D800EB800008EB00105022C0
:102A800002A90AF0F2FFD8F8C0330133C8F8C03306
:102A9000E31B99452E46D1D1AD1B711C6B1E3944E9
:102AA000CA5C1ABB482B08D81A46019303A808230E
:102AB00002930AF0DAFF019B1593D8F8C003431C78
:102AC0000C2B21D800EB800008EB0010502202A94B
:102AD0000AF0CBFFD8F8C033A34503F10103C8F8CF
:102AE000C033ADD1002017B0BDE8F08F482DE4D839
:102AF00008232A4603A802930AF0B7FFD8F8C003B8
:102B00001595431C0C2BDDD96FF0090017B0BDE8FB
:102B1000F08F6FF00A00E6E7EFF31083036072B600
:102B20007047036883F3108870470000024B1A78DF
:102B300002B91870704700BFCD3000200121014854
:102B400000F07EBBE430002013B501A8FFF7E4FFDE
:102B50000F4C104B104801221A706946224602F0B1
:102B60002FFD01A8FFF7DDFF2368FF2B84BFFF23A4
:102B7000236023684BB121680098C9B200F0DCFAE9
:102B800018B106497820FEF709FA02B010BD00BF5F
:102B9000EC300020CC300020F0300020A6EB00000C
:102BA000F0B585B004AC002544F80C5D064620461F
:102BB0000F46FFF7B1FF174A012332F8160003FA58
:102BC00007F10143204604AC89B222F81610FFF742
:102BD000A8FF44F8085D2046FFF79EFF0E4A1368E1
:102BE000204604AC43F002031360FFF79AFF44F859
:102BF000045D2046FFF790FF084A1368294643F01A
:102C000002030720136001F067FF2046FFF789FFEA
:102C100005B0F0BD5C3A0020583A0020603A002030
:102C20002DE9F04101780129044622D1254DAB68F8
:102C3000002B45D0244F0026237A9E420AD3FFF76B
:102C40007DFF237A002B3BD000210846BDE8F041F0
:102C5000FFF7A6BF63682846995D02F029FC284665
:102C6000D7F8308002F05AFC08308045E9D90136A7
:102C7000E2E702290CD1037B012B05D1FF20FFF7EE
:102C800055FF0020FFF78CFFBDE8F041FFF756BF6E
:102C9000B1B90E4C0E4B0F4D21701968284602F049
:102CA0005FFC95E80C009A4207D1287C28B90121E5
:102CB000CCE7BDE8F041FFF747BF2378002BF8D001
:102CC000BDE8F081D030002094300020CC300020CE
:102CD000EC300020F0300020012806D0044A054BDB
:102CE00002280CBF1846104670470348704700BFC3
:102CF00000509D0000B0AF0300E0D70170B5074B56
:102D00009C6A054644B1064802F008FC2346014689
:102D10002846BDE87040184770BD00BF94300020C1
:102D2000D030002070B5074BDC69054644B1064839
:102D300002F0F4FB234601462846BDE870401847E0
:102D400070BD00BF94300020F030002008B5054B66
:102D50005B6B13B1044A117898470020BDE8084026
:102D6000FFF7E4BE94300020CD30002070B503683A
:102D70008AB005460C461BB13349FF20FEF70EF919
:102D8000EB7D082B04D030494FF48070FEF706F934
:102D9000287DFFF7A1FFAB7D0890003318BF01230A
:102DA0008DF81C306B7D2949002B0CBF00230E23AE
:102DB0008DF81D30EB6804932B690593AB68039382
:102DC0006B68029303238DF8243002A800238DF84A
:102DD000253000F023F920B340F20D1100901C4B78
:102DE000194A1C48FEF78EFFFF20FFF79FFE0221C5
:102DF0002868FFF7D5FE184B18780AB070BD726AC4
:102E0000164802F0F7FAF16A41B1326B144802F049
:102E1000F1FA00F0DDFAFFF791FEECE7104B996054
:102E2000F7E70FCC0F4E35460FC50FCC0FC50FCCB3
:102E30000FC594E8030085E80300316A0029DED15C
:102E4000064B9960DFE700BFA6EB0000212C0000D5
:102E50007CEB00008EEB0000CD300020F030002035
:102E6000D0300020943000202DE9F843836A0546D5
:102E70000C4616465BB3C36A4BB31648DFF8549052
:102E800002F04CFB0746B04294BF04EB000804EB91
:102E90000608444515D1B74207D22C68FE20FFF73B
:102EA00045FE02212046FFF77BFE0B4B09481C6BB9
:102EB00002F034FB0830844209D9BDE8F843FFF73B
:102EC0003DBE484602F0C8FA04F8010BE1E7BDE850
:102ED000F88300BFD030002094300020C06A10B1C9
:102EE000014802F01BBB7047D030002010B5034CE6
:102EF000204602F013FBE368181A10BDF0300020E2
:102F000070B5036A06460C46154663B911BB1449F1
:102F10004FF4A170FEF742F8124B1B78FBB9BDE8E5
:102F20007040FFF711BEFFF7E1FF854209D80E4E52
:102F30002544A542F0D014F8011B304602F0B8FA3F
:102F4000F7E73468FC20FFF7F1FD02212046FFF788
:102F500027FEE1E71346044802F05EFADCE770BDA5
:102F6000A6EB0000CC300020F0300020074B002200
:102F70001A60074A938A91689BB2C95C938A0133AD
:102F80009BB29382034BC3F81C1570471C21004071
:102F900004310020002000401FB501238DF80030CF
:102FA000054B8DF808000191684693E806009047AC
:102FB00005B05DF804FB00BF043100201FB5084BCD
:102FC0008DF808009968019100228DF800209A750B
:102FD000684693E80600904705B05DF804FB00BF23
:102FE000043100200A4B0B49D87D0B4A18B9086000
:102FF000D2F81835704700200860597ED2F81805BD
:10300000DA6850545A7E0132D2B25A76704700BF05
:10301000043100200821004000200040F8B53E4C5B
:1030200094F81BC0BCF1000F74D13C4B002808BFC2
:1030300018464FF0A0420368457F257703F5E073FB
:103040004FF0030E42F823E00368012606FA03F36B
:10305000C2F80835436803F5E07342F823C0304BEB
:103060008669C3F82465077D467D3E43C3F86C65D9
:1030700090E8C000C3F80C65C3F81475067D002DF8
:1030800037D0012E13D1876807F5E07742F827C0C3
:10309000C76807F5E07742F827E0C768BE40C2F886
:1030A0000865C6688268C3F80865C3F81025036917
:1030B0006160236079B1017F1A4A15B31A48002371
:1030C0000360036143611360154B184AC3F804237E
:1030D000022002F0D3FE227F114BCAB10822C3F8AE
:1030E000002500200123E0752076A075E376A07608
:1030F000F8BD012EDBD1876807F5E07742F827504D
:10310000C6E70B4B1D6015600A4AC3F8E821DFE7EC
:103110000422E4E70820F8BD04310020CCEB0000D5
:103120000020004044210040102100401003020014
:103130001C2100408000020070B5394CE37E012B59
:1031400005460E4604D0374940F25710FDF726FFDA
:1031500026B934494FF4AC70FDF720FF25B9314949
:1031600040F25910FDF71AFF237F23B12A0C1204F5
:10317000B2F1005F4FD1A17D00294ED1A675A560A7
:10318000A182294EEBB1294B294A196011602949C6
:10319000A07DC1F84455C1F848050121316061683E
:1031A00009B1002070BD1868116818B90029FAD05B
:1031B0000F2003E0002914BF0F2000200023A37577
:1031C00070BD1D48036001233360FFF7CFFE6368C5
:1031D000002BE6D1A27DA38A9BB293420CD3A38A93
:1031E0009BB2B3F5807FE3D00368002BFCD0134B78
:1031F00001221A600020E1E7036823B9A38A9BB289
:10320000B3F5807FF8D1A38A9BB2B3F5807FE2D07B
:10321000FFF7ACFEDEE7102070BD112070BD00BFCF
:1032200004310020BBEB00000820004020210040BA
:1032300058210040002000401C2100400C2000408C
:103240002DE9F0415A4DEB7E012B06460C4604D089
:10325000584940F2F710FDF7A1FE24B955494FF443
:10326000FC70FDF79BFE2B7F23B1320C1204B2F1F0
:10327000005F61D1696829B14F4A9BB14FF4047076
:10328000C2F80803EA7D002A59D02A7E002A68D0B5
:1032900029B1494A4BB14FF40473C2F804331120E9
:1032A000BDE8F0814FF40170EAE74FF40173F4E7F1
:1032B00000287BD00F20BDE8F0814FF404723E4B14
:1032C000C3F8042324E00123AA7E3AB933B93B4A68
:1032D000136042F81C3C384B01221A606A6842BBFA
:1032E000374E364FDFF8E48032603B68D8F8002074
:1032F000346882B90CB9002BF7D00022EA75002B94
:1033000051D1002CD6D1AA7E012382B12A4A136062
:103310000020BDE8F081002BEFD1002CEDD1FFF7AC
:1033200061FE6B7EEA7D9A42DFD82346E5E7254AB7
:10333000EDE74FF40172C2E71020BDE8F081EC75B3
:10334000EE606A762A76002BBED01F4B1A605A6355
:10335000C3F82464C3F82844A3F5887301221A60D3
:1033600010E02E612C76002BADD0174B1A605A63FB
:10337000C3F82464C3F82844D3F8F02042F02002B4
:10338000C3F8F0206B68002B97D10F4A0C490B4C07
:1033900016680868236816B908B9002BF8D000220F
:1033A000EA75002B84D00320BDE8F081BDE8F081F0
:1033B00004310020BBEB000000200040242100402D
:1033C000442100400420004010210040082100401A
:1033D000094B1A7F22B1094940F24220FDF7DEBDB8
:1033E0009A7E42B906490A6041F81C2CA1F59271F7
:1033F00001220A609A76704704310020BBEB00007E
:1034000024210040F0B56B4C6B4D217F85B0002925
:1034100056D06A490A68002A33D0002302220B6082
:103420008DF80020664AD2F88014C2F88014039107
:10343000D2F83C258DF80820E268E37523760192E6
:1034400094E80A00684698472B685BB100232B601C
:10345000E27D3AB1E3755A4BE168D3F83C05C0B25E
:10346000FFF79AFD574B1A684AB100221A60A37DF4
:103470002BB1534BD3F84C05C0B2FFF79FFD05B0FD
:10348000F0BD514B19680029DED04D4E1A60D6F8B8
:103490003C35E07DDBB29842D6D1237E6BB1D6F8C5
:1034A0000072E16827F02007C6F80072E37523690F
:1034B000E3602276FFF770FDC6E7E375E168F9E7A0
:1034C0003F4BD3F8042312F4007F184640D03B4A08
:1034D0001668002E3CD011604FF40172C3F8082327
:1034E000A37E13B9394B01221A600223344A8DF8A6
:1034F0000030D2F88034C2F880340393E37D8DF835
:103500000830E36801930023E3752376684694E866
:103510000A0098472E4A136833B1A38AA07D9BB254
:1035200098423FD9FFF722FD2B68002BA7D000233C
:103530002B60A37E13B1224B01221A60E37D002B86
:103540009DD00023607EE168E375FFF725FD96E7D7
:10355000D0F804335B07DDD51E4B1B68002BD9D098
:10356000FFF740FD637EE27D9A42D3D1237E53B1C3
:10357000E3752369E168E3600023607E2376637668
:10358000FFF70AFDC6E7A37E13B9104B01221A60AC
:103590000B4B4FF40172C3F808230023E375607EE0
:1035A000E168EDE7002313600028BDD0FFF706FDBA
:1035B000BAE700BF0431002044210040242100402C
:1035C0000020004020210040102100400420004045
:1035D0001C2100400821004008B502F0FBFB002040
:1035E00002F0E6FE064B0020C3F80C01054BFE225C
:1035F00083F8C2005A76BDE8084001F09BB900BFCD
:1036000000100040783900202DE9F0411D4FD7F817
:10361000CC3080461BB91C497420FDF7BFFCD7F89D
:10362000CC400023C7F8CC3025782B0604F1FF36B8
:1036300002D4B8F1000F04D13046BDE8F04102F0E9
:1036400035B8691CD7F8C400C9B202F00DFE84F881
:103650008F502544C4F8830015F8013C402B9ABFD5
:103660009B00DBB2FF2384F8903003EB8303DB1075
:103670005A3B04F8013C31460120BDE8F04101F01D
:10368000CFBF00BF783900201BEC0000F7B5904C8D
:10369000D4F80C31E3B10023C4F80C3102F09AFFE6
:1036A0000138032800F2B480DFE800F07D7D0202DB
:1036B000D4F83431002B53D000252846C4F83451B7
:1036C00002F076FE2846FFF79FFF284602F01AFF19
:1036D0007F4BD3F82821002A40D04FF0000EC3F8CA
:1036E00028E17C4B93F8D82002F0FF05002A40F037
:1036F000A680D3F8CC20784F92F803E01178947824
:10370000507887F803E05278C2F3401283F8C12062
:1037100000F00502012AC9B218BF83F8C15005297B
:1037200098BF0022C4F3011698BF83F8C120012E70
:1037300084BF002283F8C12093F8C110644AC4F307
:103740008104002978D0022C6FD070D8002C70D161
:103750003021C2F86015012283F8D82003B0F0BDF3
:103760005C4C94F8C23033B902F09AF9D4E93423AE
:10377000801AC4F8C40094F8C13003F0FF0533B1D7
:10378000012384F8C230002384F8C130A0E7284622
:1037900002F00EFE0120FFF737FF284602F0B2FECE
:1037A000072363762EE04B4C94F8C130254603F096
:1037B000FF065BB149494FF4737002F0BDFA002374
:1037C00084F8C130012384F8C23081E794F8C23014
:1037D000002BE5D0D4F8CC4002F0FCFA304602F0E1
:1037E000E7FD3B4BD3F85C2182B1D3F830316BB1AC
:1037F000B4F80130C3F300132B7607236B76002354
:1038000085F8C230002001F095F861E7FE23F5E766
:10381000D4F8504502F0DEFE00940190304B314A5E
:103820003148D121FEF76EFA52E7402191E770212D
:103830008FE7002183F8C110012313628EE7D3F8CC
:10384000CC202A4990789488C0F38100B0B3D58801
:10385000D2F80660D2F80A704FF6FF72944205D093
:10386000B1F86620A24218BF83F8C1E002280BD14C
:10387000B1F86A20AA4203D14FF6FF72954209D1EE
:10388000002283F8C12005E0D1E920018F4208BF62
:103890008642F5D10E4A0121116293F8C130002B06
:1038A0003FF45CAF0C4B0521197059781221597007
:1038B000997800219970C2F804354FE7B1F8662075
:1038C000A242DDD191F88820002AE3D1D8E700BFD9
:1038D000001000407839002024310020D935000044
:1038E000ECEB00001BEC0000B1F100009032002076
:1038F00070470000024B53F820300846184700BFBD
:1039000094EC0000024B53F820300846184700BFE3
:103910006CEC0000024B0022C3F86023704700BF2C
:1039200090320020084BD3F860339A8A4AB193F85A
:10393000290010F0020005D0587D023818BF012080
:1039400070470120704700BF90320020084BD3F829
:103950006023127D022A08D1B3F86A004FF6FD7386
:10396000984294BF0020012070470020704700BF9C
:1039700090320020084BD3F860335A7D022A09D1D7
:10398000198B4FF6FF72914204D193F8290000F091
:10399000010070470020704790320020074BD3F899
:1039A000602392F8293013F0040005D0507D18B13F
:1039B00083F00200C0F34000704700BF9032002047
:1039C000094AD2F8603393F82930990709D492F85C
:1039D000880018B183F00400C0F3800000F00100FB
:1039E00070470020704700BF90320020064BD3F88C
:1039F000603393F8290010F0020003D0587D831E35
:103A000058425841704700BF9032002070B5084DB1
:103A1000D5F860432046A66800F0F6FD204694F8ED
:103A2000283000F80C3FB0470023C5F8603370BD64
:103A300090320020054BD3F86033E6225A7393F896
:103A400028201A730020FFF7E1BF00BF903200204A
:103A5000054BD3F86033E8225A7393F828201A7381
:103A60000020FFF7D3BF00BF90320020054BD3F8F2
:103A70006033EC225A7393F828201A730020FFF762
:103A8000C5BF00BF90320020054BD3F86033F5224C
:103A90005A7393F828201A730020FFF7B7BF00BFAE
:103AA0009032002010B5064CD4F8600300F0ACFD55
:103AB000D4F8600304F064FD0023C4F8603310BD43
:103AC0009032002037B5084C0025D4F860030190EF
:103AD0008DF8005000F098FD684605F0D9FAC4F85A
:103AE000605303B030BD00BF9032002030B51F4D91
:103AF0008DB0D5F8604330220021684609F0C0FF40
:103B0000012394F829208DF800309DF8013062F3EC
:103B100000038DF80130637D8DF80230237D8DF830
:103B20000330E38AADF80430D4E90623CDE902235B
:103B3000B5F86630ADF81030636A089394F8203019
:103B40008DF824300A4B0A93237D022B08D1B5F857
:103B50006A30ADF81830684603F0ECF90DB030BDAE
:103B6000D5E92023CDE90623F5E700BF90320020F8
:103B7000753B0000034BD3F860335873042000F00A
:103B8000A9BC00BF903200200B2003F0D9BA00007E
:103B900008B50020FFF72AFF38B1054BD3F86003C2
:103BA00004F0BAFC80F00100C0B200F0010008BDD2
:103BB000903200200149024801F022B8B0EC000028
:103BC0002C31002038B50D46044620B9094940F291
:103BD000DB10FDF7E3F925B906494FF4EE70FDF768
:103BE000DDF90C232371A5602046BDE8384000F0C4
:103BF000EDBC00BFC0EC0000034B04480022C3F83A
:103C00006023042101F040B8903200202C310020C4
:103C100038B5094CD4F86023054622B1074940F273
:103C2000EF10FDF7BBF90022C4F8605311460448B9
:103C3000BDE8384001F028B890320020C0EC000008
:103C40002C31002000220321014801F01DB800BFE3
:103C50002C31002000B58FB090F850308DF8003036
:103C600090F851308DF8013003788DF80230438898
:103C7000ADF80430D0E90223CDE90223037C8DF8AE
:103C80001030438AADF81230D0E90623CDE906237F
:103C900090F82430C26C8DF82030036A09939B1A87
:103CA0008DF8283090F825308DF82C3090F826309B
:103CB0008DF82D30836A0C936846FEF7A7FB04F05D
:103CC00087FF0FB05DF804FB00220121014800F0DE
:103CD000DBBF00BF2C310020034B93F8193313B125
:103CE0000F2000F0F7BB70479032002038B50B4C26
:103CF000254694F8183313B101F008FD20B90020CF
:103D000001F0EAFC30B938BD94F81833013B84F86F
:103D10001833EEE7012385F8193338BD90320020BF
:103D200010B5084C012304F54E7084F8193301F0E6
:103D30003DFE18B904F54E7001F0CCFDBDE8104011
:103D400003F028B89032002008B5FFF7CFFF0B48EA
:103D500090F8183363B980F8193300F54E7001F00C
:103D6000F3FD03F0E5F90120BDE8084000F0E2BDF5
:103D70000F20BDE8084000F0ADBB00BF903200202E
:103D800010B5134C002384F8183342F2107004F578
:103D900052730021C3E90001012384F850330D4B15
:103DA000C4F85433022384F8203304F547700A4BD7
:103DB000C4F8243300F078FE032384F82C33074B37
:103DC000C4F8303304F54A70BDE8104000F06CBE12
:103DD00090320020D93C0000213D0000493D000008
:103DE00008B50748002380F8183380F8193300F528
:103DF0004E7001F0A9FDBDE8084001F0CBBC00BF4A
:103E000090320020044A92F81833013382F81833B4
:103E10000F2000F05FBB00BF9032002008B5FFF715
:103E200065FF084B93F8192352B193F8181321B981
:103E30000320BDE8084000F04FBE00210220F8E753
:103E400008BD00BF90320020C06C01F021BC037996
:103E50000068C01A01F01CBCA0F14003DBB2212BAA
:103E600002D80B700220704707289ABF0870012003
:103E70000020704770B543789A070E4601D50020A0
:103E800070BD0578FF2D04BF0B4A92F84A505B07BE
:103E90004CBF846800F10804011D2A46304609F031
:103EA000D5FD002806DB2A462146304609F0CEFD26
:103EB0000028E4DDE82070BD90320020522810B5C3
:103EC00003D1BDE8104003F0DBBB51281FD1124CD9
:103ED00094F868304BB102F0E7FB082000F09AFC40
:103EE0000620BDE8104000F095BC02F0DDFB04F1B7
:103EF0006A01532002F0D8FB04F18001602002F037
:103F0000D3FB04F16601502002F0CEFBD9E7BDE8F7
:103F1000104002F0C9BB00BF9032002070B50546CA
:103F200014462A78C068FF2A04BF094B93F84A2038
:103F30000E4609F09AFD6B789B0607D504F1400008
:103F40003146C0B2BDE87040FFF7B8BF70BD00BFDA
:103F500090320020053808B506280BD8DFE800F0BD
:103F60000F0A040A0A060800002008BDF42008BD54
:103F7000FB2008BD034940F21910FDF70FF8E820B7
:103F800008BD00BF29ED00002128F8B505460F4601
:103F900004D9144940F28D10FDF700F8124B03EBE1
:103FA0000516737813F0080F03F001030AD0BBB9AC
:103FB00039463046FFF75EFF002814BF0446E82468
:103FC0002046F8BD63B939463046FFF753FF044633
:103FD0000028F5D12A4639463046FFF79FFFEFE724
:103FE000FB24EDE729ED000038ED000010B5074C8B
:103FF00007498022204609F038FD09F06DFD84F85C
:10400000520009F069FD84F8400010BDA032002084
:1040100058EF000038B5FFF7E9FF084D40246B78F2
:104020009B0603D5E9682046FFF748FF0134E4B258
:10403000622C05F11005F2D138BD00BF38ED00004B
:1040400038B50D46044618B905497B20FCF7A6FF94
:1040500008232371A5602046BDE8384000F0B6BAB9
:1040600029ED000013B5C4B20DF107012046FFF79A
:10407000F3FE01280BD0022810D19DF807000B4B4E
:10408000114603EB0010FFF7F5FE02B010BD11461C
:10409000204600F053FBFFF75DFFF6E740F24710C4
:1040A0000349FCF77BFFE820EFE700BF38ED000095
:1040B00029ED0000024BC3F89C000B2000F00ABA67
:1040C00090320020024BC3F89C000A2000F002BA94
:1040D0009032002070B50A4CD4F89C30D4F890503F
:1040E0001878AE68FFF736FF2B4603F80C0F18461A
:1040F000B047284600F088FA0023C4F8903070BD1D
:10410000903200202DE9F341284DD5F89030044637
:1041100023B127494FF41770FCF740FF24B9244915
:1041200040F25E20FCF73AFFA668C5F890400DF11A
:104130000701207DFFF790FE237D6373012804F1C2
:104140000C0708D02AD302280DD0194940F27E204E
:10415000FCF724FF04E0174885F8943000F076FA65
:1041600002B0BDE8F0819DF80730134A206902EBE8
:1041700003111B01C9689A5CFF2A08BF95F84A2001
:104180004FF0000809F071FC84F80C803846B04705
:10419000C5F89080204600F037FAE1E7F423237356
:1041A0003846B0470023C5F89030F3E7903200203E
:1041B00029ED00002433002038ED000007B5C0B21F
:1041C0000DF10701FFF748FE012803D0022815D0A2
:1041D00000201DE09DF80730072B09D800FA03F3F3
:1041E00013F05D0F14D113F0A00F14D19B0714D45A
:1041F0000B4940F29F20FCF7D1FEE9E79DF807301C
:10420000084A1B01985CFF2802D1074B93F84A002B
:1042100003B05DF804FB0220FAE70420F8E700BFD2
:1042200029ED000038ED0000903200202DE9F74321
:10423000264DD5F89030044623B1254940F202209E
:10424000FCF7ACFE24B922494FF40170FCF7A6FE3E
:10425000A768C5F89040E07B6073002626730DF1D7
:104260000701D4F81490FFF7F7FD012804F10C08BA
:1042700008D027D3022817D015494FF40A70FCF74D
:104280008DFE0EE0E47B31462046FFF797FF49465E
:104290000246104885F8944009F0E7FB0E4800F00C
:1042A000E7F903B0BDE8F08349469DF80700FFF742
:1042B0006BFE2073204600F0A7F94046B847C5F8CA
:1042C0009060EEE7F4232373F4E700BF9032002000
:1042D00029ED000028330020243300202DE9F0418F
:1042E000104DD5F890400021207DA768D4F81080AB
:1042F000FFF764FFD5F89C600246311D404609F087
:10430000B4FB3078FFF726FE234603F80C0F18465F
:10431000B847204600F078F90023C5F89030BDE892
:10432000F08100BF9032002030B5C5B285B0144690
:1043300022B91A494FF43570FCF730FE0DF10F0128
:104340002846FFF789FD012809D024D302280ED082
:1043500040F2EF201149FCF721FE002005E0214644
:10436000284600F011FAFFF7F5FD05B030BD452DE8
:104370000BD10B4B93F84A303BB90093074A094BDA
:1043800009484FF43971FDF7BDFC21469DF80F0037
:10439000FFF7FAFDE9E7F420E7E700BF29ED0000A9
:1043A00090320020D0EC00000BED000030B585B05D
:1043B00004A91546C4B2002201F8012D2046FFF7DA
:1043C0004BFD022809D19DF80F200C48294600EB2F
:1043D0000210FFF7A3FD05B030BD012804D1294626
:1043E000204600F0D1F9F6E70092054B054A064851
:1043F00040F20731FDF786FCEDE700BF38ED000025
:104400001AED000029ED0000B1F1000070B50E4674
:1044100004460025B54201D1002070BD6268617874
:1044200014F8080BFFF71EFE08B90135F2E7E82083
:1044300070BD70B50E4604460025B54200D170BD72
:104440006268617814F8080BFFF7B0FF0135F4E7F4
:1044500010B5114C204600F037FEA8B1227ACAB937
:104460000122227203790D2B05D80C4ABDE81040B9
:1044700052F823301847D4200949FCF78FFD204615
:10448000BDE8104000F032BF0549DC20BDE8104017
:10449000FCF784BD10BD00BF90320020D8EF0000B3
:1044A00050F0000037B502AC002544F8045D20460A
:1044B000FEF732FB064A1368294643F0040307203F
:1044C000136000F009FB2046FEF72BFB03B030BD64
:1044D000603A002037B502AC002344F8043D05469D
:1044E0002046FEF719FB064B01205A68A8401043EE
:1044F00058602046FEF715FBFFF7D4FF03B030BD30
:10450000903200202DE9F34102AD002445F8044D1E
:10451000164E2846FEF700FB2846D6F80480FEF724
:1045200000FB012718EA070F1AD02846FEF7F4FA15
:10453000736828465F407760E4B2FEF7F2FA0C4BEE
:1045400053F8243098472846FEF7E6FA73680BB113
:10455000FFF7A8FF2846FEF7E4FA02B0BDE8F081B5
:104560000134102C4FEA4707DCD1ECE790320020F1
:1045700010F0000010B5144C204600F099FDFFF734
:1045800035FDFFF7FDFB02F09DFB02F0A5FCFFF7F8
:1045900011FB04F011FD07F017FC04F09FFA05F081
:1045A00083FD07F0BDF805F0FFFF06F0B5FE06F04D
:1045B00093FA05F055F905F0DDFA07F0EFFA08F087
:1045C00051F90023636010BD9032002010B50446FD
:1045D00020B90B4940F23310FCF7E0FC23790D2B96
:1045E00004D907494FF49A70FCF7D8FC21460548D6
:1045F00000F006FE0C20BDE81040FFF76BBF00BFC7
:1046000050F000009032002038B5054620B90D4921
:104610004FF49E70FCF7C2FC0B4C204600F054FD9A
:1046200085420DD100232372204600F05FFE204614
:1046300000F04AFD20B10C20BDE83840FFF74ABF2A
:1046400038BD00BF50F000009032002010B5044685
:1046500018B905492B20FCF7A1FC044B9C600720EE
:10466000BDE8104000F066B965F000007839002020
:1046700010B5044618B905493A20FCF78FFC044BE5
:104680005C600620BDE8104000F054B965F0000001
:1046900078390020034607B50846072B29D8DFE8FC
:1046A00003F0040B040413192023184602F080F8C9
:1046B000072003B05DF804FB02A90F4B41F8043D4D
:1046C000042209F0D2F9F3E702A9002301F8043D1E
:1046D0000122F6E702A94FF4857321F8043D022276
:1046E000EFE702A90A23F1E702A9022221F8042D2B
:1046F000E7E70A20DDE700BF00F8FF0710B50B4C25
:10470000A3681BB90A494520FCF748FCA36809497E
:104710000722227318786073FFF7BCFF0023207311
:104720000548A360FFF7CEFC10BD00BF783900201C
:1047300065F00000883900208439002013B501227B
:1047400004460DF1070009F090F9032C0BD0042C5E
:1047500010D0B4B99DF807300B3B0F2B94BF072046
:10476000052002B010BD9DF80730052B34BF07208F
:104770000520F6E79DF80730002B0CBF0720052029
:10478000EFE70720EDE7000070B505460E46FFF79E
:10479000D5FF072804460BD1072D10D80123AB40C5
:1047A00013F0E20F11D113F00D0F03D1DB0606D584
:1047B000204670BD3146284601F076FFF8E70449EF
:1047C000B820FCF7EBFB0A24F2E70B24F0E700BF6C
:1047D00065F0000010B50C4C63681BB90B495920FB
:1047E000FCF7DCFB636807221946227311F8042BDF
:1047F00062731878FFF7C8FF0023207304486360D2
:10480000FFF758FC10BD00BF7839002065F00000AC
:1048100084390020032838B504460CD0A0F10803E1
:104820005D425D41002000F057FF30B12DB9BDE879
:10483000384001F0D1BC0125F4E7204601F084FCAA
:10484000844208BF072038BD10B5084CD4F8B430F6
:104850001878FFF7DFFF002384F8B80004F1B800F0
:10486000C4F8B43003F066F910BD00BF78390020F9
:1048700037B502AC002544F8045D2046FEF74CF93C
:10488000064A1368294643F001030720136000F02D
:1048900023F92046FEF745F903B030BD603A002009
:1048A000044B00221A805A619A605A60C3F8B420FF
:1048B000704700BF78390020FFF7F2BF2DE9F341C0
:1048C00002AD002445F8044D184F2846FEF724F9A0
:1048D0002846B7F80080FEF724F91FFA88F8012669
:1048E00018EA060F1CD02846FEF716F93B885E40F2
:1048F000B6B23E802846FEF714F9E4B20C4B53F8EA
:10490000243098472846FEF707F93B889BB20BB145
:10491000FFF7AEFF2846FEF704F902B0BDE8F081CC
:104920000134082C4FEA4606DAD1EBE7783900204B
:1049300074F0000037B502AC002344F8043D05468E
:104940002046FEF7E9F8074B01201A88A8401043DB
:1049500080B218802046FEF7E4F8FFF789FF03B025
:1049600030BD00BF783900202DE9F74302AD0024A7
:1049700045F8044D114EDFF848902846FEF7CCF874
:104980002846D6F80080FEF7CCF8012718EA070F72
:104990000BD02846FEF7C0F8336828467B403360CA
:1049A000FEF7BFF859F8243098470134032C4FEA3A
:1049B0004707EBD103B0BDE8F08300BF583A0020B1
:1049C00094F0000001F00CB801F0F2B92DE9F043C9
:1049D00085B004AD002445F8104D2846FEF79CF83C
:1049E000274623462046294C0121228892B20A42BA
:1049F0005FFA83F806D058B922884A4092B22280E2
:104A0000474601200133032B4FEA4101EDD131E04C
:104A10000DF11009002649F80C6D4846FEF77CF8A8
:104A20002288012303FA08F313439BB2238004ACCA
:104A30004846FEF776F844F8086D2046FEF76CF815
:104A4000134A1368204604AC43F002031360FEF7D8
:104A500068F844F8046D2046FEF75EF80D4A1368C6
:104A6000072043F002033146136000F035F820467A
:104A7000FEF757F82846FEF754F8074B002053F886
:104A80002730984705B0BDE8F08300BF5C3A0020AE
:104A9000583A0020603A0020A0F00000014800F0E1
:104AA00007BB00BF3431002010B5044618B90849CF
:104AB0002C20FCF773FAA3681BB905492D20FCF7DD
:104AC0006DFA21460348BDE8104000F099BB00BFD5
:104AD000ACF0000034310020F8B505460948094F14
:104AE0000E4600F0F1FA044604B9F8BD2379AB4252
:104AF00002D1A368304698472146384600F008FBAB
:104B00000446F1E7343100202DE9F047884688B0AB
:104B100017469946054618B93649A920FCF73EFACA
:104B20002B686A791C681E79D2B204EB8606B9F14B
:104B3000000F20D12B79F3B1B44215D3DFF8B4A024
:104B40000434B44253D2237843454ED16378FF2BCB
:104B500014D1A378FF2B22D1E378FF2B00D06B7107
:104B6000012008B0BDE8F087237883F080039A42E3
:104B7000E4D00434E0E704EB8904DFE72B68D3F8E2
:104B80000890B9F1000F03D15146F520FCF706FA61
:104B900039466078C8470028DBD10434D1E72B6858
:104BA000D3F80C80B8F1000F04D1124940F2031081
:104BB000FCF7F4F96E79A0783946C0476B79F6B204
:104BC0009E42C9D06B79E27806920593A37804934C
:104BD00063780393029601940095074B054A0748B2
:104BE00040F21711FDF78EF8B6E71B06D5D5002069
:104BF000B7E700BFECF00000F6F0000029F100007C
:104C00002DE9F0478846074618B91E494D20FCF7A4
:104C1000C5F9B8F1000F03D11A494E20FCF7BEF9CF
:104C2000C7F8008098F805307B710025BD71D8F871
:104C30000090DFF850A0FF2498F80430EEB29E42B6
:104C400007D3FF2C02D09C4228BFFF243C71BDE853
:104C5000F087FF2C0FD019F82630FF2B03D15146D7
:104C60007420FCF79BF919F92630002B03DA514622
:104C70007A20FCF793F919F826300135FF2B08BF8D
:104C80003446D9E7ECF000007FB5837904460D4641
:104C9000164653B143790193029100900D4B0E4A91
:104CA0000E484FF49B71FDF72DF80123A371324696
:104CB000002329462046FFF727FF38B92379FF2B29
:104CC00004D0324629462046FFF71EFF0023A37179
:104CD00004B070BDB9F00000ECF00000CBF00000B3
:104CE00037B50C46054600F02AFF00F029FF08F012
:104CF000CFFEA30707D0042300930C4A0C4B0D48AA
:104D00003521FCF7FFFF2146284600F01FF800F090
:104D10001BFD00F0CFFDFFF7C1FE01F0ADF9FFF77D
:104D2000BFFD03B0BDE83040FFF724BC8EF10000AA
:104D300055F1000099F10000436823F00103184485
:104D4000014B40F8043C7047BEBAADDE38B50446AE
:104D50000C480D4600F0F0FE0023A3600A4B2360D0
:104D600065602046FFF7E8FF084B236104F10C0162
:104D70001A681960064B51601C60064BE2602C44B7
:104D80001C6038BD3831002033CCAA557C0000208F
:104D9000403100203C3100202DE9F84F06464F48B5
:104DA0004F4FDFF84CA100F0C8FE4E4A0F3626F0F8
:104DB000030613680436182E1C6838BF1826904660
:104DC000434505D1454800F0B9FE0020BDE8F88F05
:104DD000A3F10C0553F80C3CBB4203D04249CF2051
:104DE000FCF7DCF86B6823F001032B4453F8043C18
:104DF000534503D03C49D020FCF7D0F8DFF8F4B09D
:104E0000EB68DBF800209342D94603D3374A126897
:104E1000934205D9434503D03349D420FCF7BEF86B
:104E20002B69DBF80020934203D3304A1268934287
:104E300005D9434503D02C49D820FCF7AFF86A6860
:104E4000B24202D223462468BAE7941B302C23D8FE
:104E5000EB68D9F80020934203D3244A12689342A6
:104E600005D9434503D02049F220FCF797F82B6978
:104E7000D9F80020934203D31C4A1268934205D903
:104E8000434503D01849F620FCF788F8EA682B69F7
:104E900053602C461A6015E0144B6C6018682C4463
:104EA000844228BF00242A44824228BF0022666030
:104EB0002846A5602760FFF73FFF2046FFF73CFF2D
:104EC00002B194606368054843F00103636000F039
:104ED00035FE04F10C00BDE8F88F00BF383100202A
:104EE00033CCAA557C000020B3F100003C310020F7
:104EF000BEBAADDE403100202DE9F047654B1A689F
:104F0000904204469A4603D3634B1B68984204D9E7
:104F1000624940F20B10FCF741F8002C00F0B88019
:104F20005F485D4F00F009FEDAF80030A4F10C058F
:104F30009D4202D33B689D4204D9584940F2191062
:104F4000FCF72CF8574B54F80C2C9A42994604D095
:104F500052494FF48D70FCF721F86B68524A23F0E8
:104F600001032B44904653F8043C934204D04B4930
:104F700040F21B10FCF712F86B68D90704D44749BC
:104F80004FF48F70FCF70AF86C683B68AE6824F049
:104F900001046C602C449C4228BF0024002C45D0A6
:104FA00023684B4504D03D4940F22710FBF7F6FF3C
:104FB000636823F00103234453F8043C434504D0C1
:104FC00036494FF49470FBF7E9FF6368DA072DD494
:104FD000E368DAF80020934202D33A68934207D993
:104FE000324A934204D02D494FF49870FBF7D6FF14
:104FF0002369DAF80020934202D33A68934207D932
:105000002A4A934204D025494FF49A70FBF7C6FF11
:10501000E268236953601A606A68636813443A68F7
:105020006B602B44934201D203B19D6016B173684B
:10503000DB070CD51D4B2B611A6805F10C01516083
:105040001960EA601648BDE8F04700F077BD3368A4
:105050004B4504D011494FF4A270FBF79FFF7368D2
:1050600023F00103334453F8043C434504D00B4977
:1050700040F24510FBF792FF72686B6813443A6880
:10508000736033449342DDD2002BDBD09E60D9E7BE
:10509000BDE8F087403100203C310020B3F1000032
:1050A0003831002033CCAA55BEBAADDE7C000020DA
:1050B00010B5044618B903494D20FBF76FFF246073
:1050C00010BD00BFC8F1000010B5044618B908496A
:1050D0005520FBF763FF23681BB905495620FBF7F2
:1050E0005DFF23689C4214BF1868002010BD00BFFC
:1050F000C8F1000010B5044618B904496320FBF755
:105100004DFF2068844208BF002010BDC8F1000098
:1051100038B50C46054618B90C497020FBF73EFF20
:105120001CB90A497120FBF739FF2846FFF7CCFF6D
:1051300018B906497220FBF731FF2846FFF7DAFF5E
:10514000844214BF2068002038BD00BFC8F10000B1
:1051500038B504460D46FFF7B7FF00B938BDA84281
:1051600004D001462046FFF7D3FFF6E7012038BD03
:1051700070B50E461446054618B90F493C20FBF79A
:105180000DFF1EB90C493D20FBF708FF1CB90A4969
:105190003E20FBF703FF21462846FFF7D9FF18B151
:1051A00005493F20FBF7FAFE3368236034602B6823
:1051B0009E4208BF2C6070BDC8F1000038B50C4697
:1051C000054618B90D497F20FBF7E8FE1CB90B49CD
:1051D0008020FBF7E3FE21462846FFF7B9FF18B110
:1051E00006498120FBF7DAFE2B689D4215BF1A683D
:1051F000246022602C6018BF1C6038BDC8F100001C
:1052000038B50C46054618B90D499620FBF7C6FE81
:105210001CB90B499720FBF7C1FE21462846FFF732
:1052200097FF18B106499820FBF7B8FE2B689D42FE
:105230001BBF1A68226024601C602C6038BD00BF50
:10524000C8F100002DE9F8430E469146054618B90D
:105250001E49B120FBF7A2FE1EB91C49B220FBF784
:105260009DFEB9F1000F03D11849B320FBF796FE5C
:1052700031462846FFF76CFF18B11449B420FBF7FC
:105280008DFE2846FFF720FF4FF0000804460CB9BA
:1052900027460BE031462046C847074678B1B8F1AB
:1052A000000F06D131462846FFF788FF3846BDE893
:1052B000F883324641462846FFF75AFFF6E7214673
:1052C0002846FFF725FFA0460446E0E7C8F10000A6
:1052D00038B504460D46FFF7B5FF28B929462046E4
:1052E000BDE83840FFF78CBF38BD000010B504465C
:1052F00018B90849DD20FBF751FE23689C4206D00F
:105300001868834216BF026824601A6010BD00202E
:1053100010BD00BFC8F1000038B50C46054620B9E5
:1053200015494FF48870FBF739FE2B6823B91249F1
:1053300040F21110FBF732FE24B90F494FF4897087
:10534000FBF72CFE236823B90B4940F21310FBF73F
:1053500025FE2846FFF7CEFE844204D106494FF4CD
:105360008A70FBF71BFE23682A689A4208BF2C60EC
:1053700023681B68236038BDC8F1000038B50D46AE
:10538000044618B91149FA20FBF708FE1DB90F4968
:10539000FB20FBF703FE2046FFF796FE85422046E2
:1053A00003D1BDE83840FFF7A1BFFFF78DFE0146EE
:1053B00000B938BD0B689D42204603D1BDE8384096
:1053C000FFF7AABFFFF7A4FEF1E700BFC8F1000096
:1053D00010B5044620B906494FF4AF70FBF7DEFD67
:1053E0002046FFF787FEB0FA80F0400910BD00BFED
:1053F000C8F1000070B50E461546044618B90549B7
:105400001D20FBF7CBFD002323606360A660E560F1
:10541000237470BDD4F10000F8B50F4615461E4642
:10542000044618B90B492B20FBF7B8FDB54203D948
:1054300008492C20FBF7B2FD324639462046FFF7DB
:10544000D9FFB54203BF002323600123256008BFB5
:105450002374F8BDD4F10000F7B5044618B9134918
:105460003920FBF79BFD94E80C009A4201D1237C84
:10547000B3B102AE002546F8045D3046FDF74CFBA3
:105480006268A168531C63608F5CE268934200D13C
:10549000656030462574FDF744FB384603B0F0BD27
:1054A00002493A20FBF77AFDE3E700BFD4F10000A0
:1054B00073B50E46044618B917496820FBF76EFD10
:1054C00002AD002345F8043D2846FDF725FB237C6B
:1054D0001BB111496C20FBF761FD2368A268591CC0
:1054E0002160D654237CE26833B163680133934270
:1054F000636004BF002363602368934204BF0023FA
:10550000236094E80C009A4204BF012323742846C8
:10551000FDF707FB02B070BDD4F1000073B505467E
:1055200018B90E498620FBF739FD02AE002346F874
:10553000043D3046FDF7F0FA2B7C33B1EC68304681
:10554000FDF7EFFA204602B070BD95E81800A342BF
:105550003CBFEA689B181C1BF1E700BFD4F10000B8
:1055600073B50D46044618B914494C20FBF716FDD7
:10557000E368AB4203D211494D20FBF70FFDD5B1D3
:1055800002AE002346F8043D3046FDF7C5FA20463A
:10559000FFF7C4FF6368E268A84228BF28460344B7
:1055A0009342636024BF9B1A636008B10023237495
:1055B0003046FDF7B6FA02B070BD00BFD4F100006E
:1055C000F7B50F461546044618B91449AD20FBF748
:1055D000E5FC1FB91149AE20FBF7E0FC1DB90F49EE
:1055E000AF20FBF7DBFC02AE002346F8043D30465B
:1055F000FDF792FA6268A36813443B60236862680F
:10560000934207D1237C33B92B603046FDF789FAEA
:1056100003B0F0BD00D8E3689B1AF5E7D4F10000B1
:1056200073B502AC002344F8043D054620460E46FF
:10563000FDF772FA064B181D002D08BF184606F13B
:105640008801FFF7DDFD2046FDF76BFA02B070BD63
:105650004431002037B502AD002345F8043D04462F
:105660002846FDF759FA094B181D002C08BF1846AB
:10567000FFF73CFE04462846FDF753FA1CB1A4F19F
:10568000880003B030BD2046FBE700BF4431002056
:1056900010B5044618B904496820FBF77FFCA01E2A
:1056A000BDE81040FFF728BCE5F1000037B502ACBB
:1056B000002344F8043D05462046FDF72DFA05F188
:1056C00088010448FFF79CFD2046FDF72AFA03B045
:1056D00030BD00BF4431002037B502AC002344F890
:1056E000043D05462046FDF717FA074B181D002D0F
:1056F00008BF1846FFF76CFE05462046FDF711FA75
:10570000284603B030BD00BF4431002013B500234C
:1057100094200193FFF740FB044668B1831CC0F856
:105720008C3001A8FDF7F8F9064804F18801FFF76D
:1057300067FD01A8FDF7F5F9201C18BF012002B094
:1057400010BD00BF44310020F7B50D480D4D0E4E81
:105750000E4FFFF7ADFC0E48FFF7AAFC0424FFF73D
:10576000D5FF38B90123009332462B462F21384606
:10577000FCF7C8FA013C14F0FF04F0D103B0F0BD0F
:1057800048310020FAF10000E5F1000027F20000A6
:105790004431002008B50120FFF79EFF38B10020FA
:1057A000FFF79AFF48B1BDE80840FFF7CDBF0120E1
:1057B000FFF750FFFFF7A0FBEDE7FFF74BFFFFF709
:1057C0009BFBECE7704700002DE9F34102AD00249C
:1057D00045F8044D114E2846FDF79EF92846D6F8A7
:1057E0000080FDF79EF9012718EA070F10D0284620
:1057F000FDF792F9336828465F403760E4B2FDF761
:1058000090F9074B53F82430984702B0BDE8F08177
:105810000134052C4FEA4707E6D1F6E7603A00204D
:1058200034F2000073B502AE002346F8043D04468E
:105830003046FDF771F9D4E9024500F02FFA201A3D
:1058400065EB0101002871F10003BCBF00200021BD
:1058500000F054FA3046FDF764F902B070BDF8B5B7
:105860000C46D0E9026700F019FA361A67EB010717
:10587000D4E9024500F012FA201A65EB0101002E6E
:1058800077F100030ADA002871F100030EDA8F4283
:1058900008BF864234BF01200020F8BD002871F106
:1058A000000305DBB94208BFB042F3E70020F8BDB2
:1058B0000120F8BD08B500F0F7F800F0A5F903489D
:1058C000FFF7F6FB024B00221A7008BD5031002092
:1058D0004C31002038B504461848FFF7F5FB054663
:1058E0001CB917499320FBF759FBE3691BB914490D
:1058F0009420FBF753FBD4E90423002A73F100033F
:1059000003DA0F499520FBF749FB00F0C7F9D4E90A
:10591000042380185941C4E902010A4A0748214674
:10592000FFF7D6FC0548FFF7CFFB854204D02046A1
:10593000BDE83840FFF776BF38BD00BF50310020CA
:1059400048F200005F58000073B504461448FFF7A2
:10595000BBFB06461CB91349A620FBF71FFB2146DB
:105960000F48FFF70BFD0E48FFF7AEFB054688B961
:1059700002AC00F079F944F8045D2046FDF7CCF85C
:10598000094A1368204623F001031360FDF7C9F8A4
:1059900002B070BD8642FBD0FFF744FFF8E700BFBE
:1059A0005031002048F20000583A002038B5044633
:1059B00018B90949BD20FBF7F1FA0848074DFFF770
:1059C00083FB00B938BDA04204D001462846FFF74A
:1059D0009FFBF6E7012038BD48F20000503100205F
:1059E0002DE9F3472A482B4DFFF76EFB50B92B7872
:1059F0001BB12949D920FBF7D1FA01232B7002B042
:105A0000BDE8F087DFF88880DFF890A04FF000094C
:105A1000404685F80090FFF769FC0446C369006AB8
:105A20009847237E012B0CD100F038F9D4E90423E8
:105A300080185941C4E90201524621464046FFF709
:105A400047FC4046FFF740FB0646F0B102AC44F885
:105A5000049D2046FDF760F8D6E9026700F01EF9C4
:105A6000301A67EB0101B0F10A0241F1FF33002A5D
:105A700073F1000305DB00F041F92046FDF751F812
:105A8000BDE72046FDF74DF8C2E700F0EDF8B6E7B8
:105A9000503100204C31002048F200005F580000D7
:105AA00000F0FCB800F002B87047000000283ED0BB
:105AB0001F4B204A1B6800BF00BF00BF00BF00BFD4
:105AC00000BF00BF00BF93422FD000BF00BF00BF88
:105AD00000BF00BF00BF00BF00BF00BF00BF00BFCE
