:1000000000000420B5020000DD020000DF02000055
:10001000E1020000E3020000E50200000000000031
:10002000000000000000000000000000E7020000E7
:10003000E902000000000000EB020000ED020000F9
:10004000EF020000EF020000EF020000EF020000EC
:10005000EF020000EF020000EF020000EF020000DC
:10006000EF020000EF020000EF020000EF020000CC
:10007000EF020000EF020000EF020000EF020000BC
:10008000EF020000EF020000EF020000EF020000AC
:10009000EF020000EF020000EF020000EF0200009C
:1000A000EF020000EF020000EF020000EF0200008C
:1000B000EF020000EF02000000000000000000005E
:1000C000EF020000EF020000EF020000EF0200006C
:1000D000EF020000EF020000EF020000EF0200005C
:1000E000EF020000EF020000EF020000000000003D
:1000F00000000000EF02000000000000EF0200001E
:1001000000000000000000000000000000000000EF
:1001100000000000000000000000000000000000DF
:1001200000000000000000000000000000000000CF
:1001300000000000000000000000000000000000BF
:1001400000000000000000000000000000000000AF
:10015000000000000000000000000000000000009F
:10016000000000000000000000000000000000008F
:10017000000000000000000000000000000000007F
:10018000000000000000000000000000000000006F
:10019000000000000000000000000000000000005F
:1001A000000000000000000000000000000000004F
:1001B000000000000000000000000000000000003F
:1001C000000000000000000000000000000000002F
:1001D000000000000000000000000000000000001F
:1001E000000000000000000000000000000000000F
:1001F00000000000000000000000000000000000FF
:1002000010B5054C237833B9044B13B10448AFF350
:1002100000800123237010BD6C000020000000004E
:100220002006000008B5034B1BB103490348AFF398
:10023000008008BD000000007000002020060000C3
:10024000154B002B08BF134B9D46A3F5803A0021A8
:100250008B460F461348144A121A00F0C3F90F4B8D
:10026000002B00D098470E4B002B00D09847002061
:10027000002104000D000D48002802D00C48AFF307
:10028000008000F08BF92000290000F031F800F028
:1002900071F900BF00000800000004200000000009
:1002A000000000006C00002088000020000000001A
:1002B000000000000649074A074B9B1A03DD043B78
:1002C000C858D050FBDC00F073F8FFF7B9FF00000E
:1002D0002C060000000000206C000020FEE7FEE776
:1002E000FEE7FEE7FEE7FEE7FEE7FEE7FEE7FEE7E6
:1002F00070B50120094D00F02DF845F001050026EC
:10030000304600F00DF84FF4FA744FF47A40A847E5
:10031000013CFAD10136042EF2D1F0E710060000BC
:100320000A4B195C1F298ABF09484FF0A04001F011
:100330001F01D0F8043501228A4022EA030113404C
:10034000C0F80815C0F80C35704700BF180600004B
:1003500000030050C20730B40ED483070AD54FF013
:10036000A0430C22C3F82C27C3F83027C3F860271A
:10037000C3F8642730BC70474FF0A0430322C3F892
:1003800034274FF40055C3F838274FF48044C3F89E
:100390003C274FF40041C3F840274FF48032C3F8A4
:1003A0000855C3F80845C3F80815C3F80825D4E76D
:1003B00010B44FF080414FF080520020C1F80C0182
:1003C0005E4BC1F81001C1F83805D2F80414C3F827
:1003D0002015D2F80814C3F82415D2F80C14C3F869
:1003E0002815D2F81014C3F82C15D2F81414C3F839
:1003F0003015D2F81814C3F83415D2F81C14C3F809
:100400004015D2F82014C3F84415D2F82414C3F8C8
:100410004815D2F82814C3F84C15D2F82C14C3F898
:100420005015D2F83014C3F85415D2F83414C3F868
:100430006015D2F83814C3F86415D2F83C04C3F838
:100440006805D2F840043E49C3F86C050968D2F843
:100450004424C3F87025082924D04FF08043D3F8F2
:100460000024D20744BF6FF00102C3F80024354ACC
:10047000D2F8883043F47003C2F88830BFF34F8F4E
:10048000BFF36F8F4FF01023D3F80022002A23DB35
:10049000D3F80432002B1FDB2B4B2C4A1A605DF87B
:1004A000044B70472A4B1B68002BD6D129482A4A97
:1004B0002A4C04602A492B4BFB20C2F818050A6815
:1004C0001B68294822F00F0203F00F0313434FF477
:1004D00000720B600260C0E7244B0122C3F80425C0
:1004E000D3F80024002AFBD04FF0102312221F491A
:1004F000C3F80022D1F80034002BFBD04FF01022BB
:1005000012211A4BC2F80412D3F80024002AFBD09F
:1005100000221649C3F80425D1F80034002BFBD083
:10052000BFF34F8F0749124BCA6802F4E0621343CE
:10053000CB60BFF34F8F00BFFDE700BF00C000409E
:100540003001001000ED00E0000000200090D0031A
:10055000340100108C56004000F000404881030038
:10056000E40E0040580200104096024000E00140B6
:100570000400FA0508B5074B044613B10021AFF398
:100580000080054B1868836A03B19847204600F045
:1005900031F800BF000000001C06000070B50D4ED1
:1005A0000D4CA41BA4100025A54209D10B4E0C4CE8
:1005B00000F022F8A41BA4100025A54205D170BDAF
:1005C00056F8253098470135EEE756F8253098471C
:1005D0000135F2E764000020640000206400002080
:1005E0006800002002440346934200D1704703F89C
:1005F000011BF9E7FEE700BFF8B500BFF8BC08BC77
:100600009E467047F8B500BFF8BC08BC9E467047D0
:100610000338FDD8704700000D0E0F1004000020B5
:0406200000000000D6
:080624001CFCFF7F0100000037
:10062C000090D0030000000000000000000000005B
:10063C0000000000000000000000000000000000AE
:10064C00000000000000000000000000000000009E
:10065C00000000000000000000000000000000008E
:10066C00000000000000000000000000000000007E
:10067C00000000000000000000000000000000006E
:0C068C0000000000250200000102000038
:04000003000002B542
:00000001FF
